:020000040001F9
:10B00000A8370020D5B00100EFB00100F1B0010079
:10B010000000000000000000000000000000000030
:10B02000000000000000000000000000F3B001007C
:10B030000000000000000000F5B00100F7B00100C2
:10B040008DB40100F9B00100CDB6010001B50100D9
:10B05000F9B0010000000000D1B20100A9B2010066
:10B06000F9B00100F9B00100DDB50100F9B001004F
:10B07000F9B00100F9B00100F9B00100F9B0010028
:10B08000F9B00100E1B40100F9B00100F9B001002C
:10B0900015B50100F9B001001DB50100F9B00100BE
:10B0A000F9B00100F9B0010000000000000000004C
:10B0B0000000000000000000000000000000000090
:10B0C0000348854600F0B0F800480047E1D401008D
:10B0D000A83700200321094802680A430260084893
:10B0E00002680A4302600748804707480047FEE7B6
:10B0F000FEE7FEE7FEE7FEE7FEE70000240500406E
:10B10000540500403DB50100C1B0010030B50B460B
:10B11000014600202022012409E00D46D5409D4231
:10B1200005D31D469540491B2546954040191546B7
:10B13000521E002DF1DC30BD70B5002425460028DC
:10B1400001DA01244042002901DA01254942FFF7D2
:10B15000DDFFAC4200D04042002C00D0494270BD1F
:10B1600003460B439B0703D009E008C9121F08C020
:10B17000042AFAD203E00B780370401C491C521ECB
:10B18000F9D27047D2B201E00270401C491EFBD2D6
:10B1900070470022F6E710B513460A4604461946E2
:10B1A000FFF7F0FF204610BDF0B51FB406460020A3
:10B1B00082B005464024019100901BE0019922468F
:10B1C0000F46304600F042F8049A059B801A9941D8
:10B1D00010D310461946224600F016F8361A8F4151
:10B1E0000197224601200021009F00F00DF8381839
:10B1F0004D4100902046641E0028DFDC019B009832
:10B200002946324607B0F0BD10B5202A04DB0146BE
:10B21000203A9140002010BD914020239C1A034603
:10B22000E3401943904010BD064C0125064E05E051
:10B23000E36807CC2B430C3C98471034B442F7D357
:10B24000FFF742FF14F3010034F3010010B5202A88
:10B2500004DB0846203AD040002110BD0B46D34005
:10B26000D0402024A21A91400843194610BD30B5A1
:10B270008C180278401C13071B0F01D10378401C67
:10B28000120906D10278401C03E005780D70401CBD
:10B29000491C5B1EF9D101E00B70491C521EFBD109
:10B2A000A142E6D3002030BD0549002008600548D2
:10B2B0008068054908620549012008607047000060
:10B2C0000071004000750040E81F00200070004041
:10B2D000F0B50024FF268BB00136012527460694E1
:10B2E000304602F0D3FF002807D054484068284277
:10B2F00003D0304602F0C2FF2C43361D6D007F1C88
:10B30000B6B2042FECD3FF257D35284602F0BEFFF0
:10B31000002809D0284602F0B1FF6807044306AAB6
:10B320000121002002F096FF454D200714D001278F
:10B33000002627420CD04348B20011180869096959
:10B34000C004C00E8903AA58890F002A00D0904774
:10B350007F00761C042EECD3002C6DDA00200890C0
:10B36000401E63E0281940300778B906890E009125
:10B3700000214156491C49D009A9009802F06EFBF2
:10B38000002843D0B8090190009801F06DFD8000BD
:10B390002F580198002F02D0032802D00DE0032877
:10B3A00034D1009808ABC20841079446985C490F15
:10B3B00001228A40104362469854009805210907EB
:10B3C00080004018072109024018006806A9800380
:10B3D000800F0290009802F041FB0028029802D0F2
:10B3E000022802D012E0032810D10198032808D1C6
:10B3F000029802281ED00221009802F0FDFE761C61
:10B40000F6B2002F02D001990098B847641C042CB2
:10B41000A8D3002E10D06A460121002002F01AFFA6
:10B4200006990098884207D006900898002634466E
:10B43000099097E70321DFE70BB0F0BD0063004000
:10B440009C260020006500408307FF22DB0E9A4007
:10B450008907090E994000280BDA0007000F083809
:10B46000830808489B001818C36993430B43C361C2
:10B470007047830804489B001B18186890430843D2
:10B480001860704700ED00E000E400E0F8B5FF2030
:10B49000013002F0EBFA002401250E4E0E4F002879
:10B4A00007D00E4804600120B0607D70002001F0DC
:10B4B000E3FCFF20053002F0D9FA002808D0074845
:10B4C000001D04600220B060BD70012001F0D4FCBA
:10B4D000F8BD000000030040882600200001004065
:10B4E00010B506490020086048608860C8600349BC
:10B4F00040390860486003F03FFA10BD4011014038
:10B5000010B50249024801F0A3FE10BDF02300204F
:10B510000030004010B503F0A1F910BD10B5064889
:10B520004068002805D08047002801D000F01AFCB0
:10B5300010BD01F04DFE10BDFC20002010B501F043
:10B54000EBFE002805D01F491D484860C8131E495E
:10B5500088611E48018CC9B201290BD1828C120767
:10B5600008D1028D1206120F042A03D1828D120611
:10B57000120F0AD0012921D1818C09071ED1018D1A
:10B580000906090F0A2904D007E0114A0121916038
:10B59000F5E7828D1206120F05D00D290ED1808D90
:10B5A0000006000F0AD10B480168012904D00A499E
:10B5B000016001680129FCD1C021416110BD00007A
:10B5C000DFFF07C000050040006C0040C00F00F026
:10B5D0000006004000EC064075930000F8B52C4CC6
:10B5E00020682C4D2C4E002700280DD07068C00319
:10B5F0000AD52760172002F011FE042002F01EFA7F
:10B60000296A26A000F06CF86068002806D07068EF
:10B61000800303D56760172002F008FEA0680028A9
:10B6200006D07068400303D5A760182002F0F6FD2D
:10B63000E06800282AD07068000327D5E76018204A
:10B6400002F0F4FD134A0832911E881E02F052F9EE
:10B650000420285EE96B401AC117090D0818011370
:10B6600069650620285E2A6C801AC217120D101810
:10B670000213AA650820285E6B6CC01AC3171B0D45
:10B68000181803130AA0EB6500F02AF8F8BD0000B3
:10B6900040A10040E81F002000A300404144432097
:10B6A00073616D706C6532203A202564200D0A00AC
:10B6B00043616C692058203A2025642C20793A2572
:10B6C000642C5A3A2564200D0A00000010B5024986
:10B6D000024803F063FC10BDE42600200020004077
:10B6E0000FB410B503A9044B044A029800F032F8D5
:10B6F00010BC08BC04B0184707D10100F820002096
:10B7000030B47446641E2578641CAB4200D21D46DA
:10B71000635D5B00E31830BC184702E008C8121FE5
:10B7200008C1002AFAD170477047002001E001C12A
:10B73000121F002AFBD17047202804DA0121814022
:10B740000348014201D001207047002070470000EB
:10B75000FC06FFBCFFB58FB00F460446002606E08E
:10B7600025280AD0129A11999047641C761C2078DB
:10B770000028F5D1304613B0F0BD00250121A14AC3
:10B78000009500E00543641C23780846203B984060
:10B790001042F7D120782E2815D104200543607877
:10B7A000641C2A280AD101CF641C00900BE0009988
:10B7B0000A22514330394018641C00902078014619
:10B7C00030390929F3D920786C280ED004DC4C28B4
:10B7D00013D06A2812D104E074280ED07A280DD133
:10B7E0000BE001204005054307E0012109056278CF
:10B7F0000D43824201D16D18641C641C207886467A
:10B8000069284AD008DC0028B4D058286DD06328B5
:10B8100010D0642808D140E070286BD0732812D073
:10B82000752860D0782860D0129A70461199904798
:10B83000761CE5E03878694608720020487202A854
:10B840000190012003E0386801900020C0433F1DB3
:10B8500069070CD5002500E06D1C00998D420FDAB8
:10B860008542F9DB0199495D0029F5D108E0002501
:10B8700000E06D1C8542FCDB0199495D0029F8D18F
:10B88000761907E0019801990078491C0191129AF4
:10B89000119990476D1EF5D2B2E00A200290002166
:10B8A0006802400F039102280CD001CFC1178446D3
:10B8B00000290DDA62460846524200218141944631
:10B8C0002D2008E0FF1DFF08FF0003CF8446EFE7AF
:10B8D000280504D52B206A46107401203CE0E807B7
:10B8E0003AD02020F7E70A2000E010200021039141
:10B8F000029007E010200290002104200543082058
:10B90000039100906802400F022810D001CF00215F
:10B91000844600200D9028071FD5704670280CD053
:10B92000029A1020039B42401A430CD015E0FF1DE1
:10B93000FF08FF0003CF8446EBE740206A461074FF
:10B9400001200D900CE06046084306D030206A4686
:10B9500010747046507402200D907046582804D020
:10B9600029A001900DA80E900DE02CA0F9E76046EB
:10B97000039B029AFFF718FC019B84469B5C0E9A7E
:10B98000521E0E92137060460843F0D10E9805A91E
:10B99000081A20300190680701D5009801E00120C5
:10B9A00000900199884203DD01460198081A00E0E1
:10B9B00000200025009006E004A8129A405D11992D
:10B9C00090476D1C761C0D988542F5DB04E0129AB9
:10B9D000302011999047761C0099481E009000294C
:10B9E000F5DC08E00E980E990078491C0E91129A29
:10B9F00011999047761C0199481E01900029F1DCAD
:10BA0000641CB4E60928010030313233343536374E
:10BA1000383961626364656600000000303132339A
:10BA2000343536373839414243444546000000003A
:10BA30001CB50B49C868096900900191684601F07E
:10BA4000DDFF084901204860074801680902090A2A
:10BA50000207114301600549802008601CBD0000F9
:10BA600058F201000073004004E400E000E100E04F
:10BA7000F7B584B00646002517881580203002905F
:10BA8000407B1446002806D03A462146059800F02F
:10BA900075FD050009D1B078002823D005988646A9
:10BAA0002088001DB84202D90C2007B0F0BD6846BE
:10BAB00079DF0028F9D1218803207246505420886C
:10BAC0001921401C80B22080115420887146401CEE
:10BAD00080B2208041186846008803F0F3FA21887C
:10BAE00040182080F078002817D0218803230A46C8
:10BAF000F356C91C0598B942D6D802218154218831
:10BB00000122491C89B2218042542188491C89B2F2
:10BB1000218043542088401C20807068002817D062
:10BB200021880023C3560A46C91C0598B942BBD8D0
:10BB30000221815421880A22491C89B22180425461
:10BB40002188491C89B2218043542088401C2080D0
:10BB5000308900280AD0009430460197062202213D
:10BB60000830059B03F0FCFA05009ED1308A0028BE
:10BB70000AD0009430460197072203211030059B1C
:10BB800003F0EEFA050090D1308B00280AD0009423
:10BB900030460197152214211830059B03F0E0FA76
:10BBA000050082D1306A002806D03B46224605991E
:10BBB00001F0CAF90500D8D1706A002806D03B46CA
:10BBC0002246059901F008FE0500CED10298007BBF
:10BBD000002807D03B4622463046059902F008FD72
:10BBE0000500C2D13078002807D03B4622463046B7
:10BBF000059901F0B3FE0500B7D1284655E70000CE
:10BC0000174A0021535C002B01D0012203E0491C9C
:10BC10000629F7D300221349012806D002280BD0A9
:10BC2000032810D0042818D112E04878002803D047
:10BC3000002A01D0012070478878002803D0002A0C
:10BC400001D002207047C878002801D00320704737
:10BC50000879002801D004207047002070470000B8
:10BC60007D200020A024002010B501220221002008
:10BC700000F0BCFE002801D0072812D107220221C3
:10BC8000012000F0B3FE002801D0072809D10021CF
:10BC90000A22084600F0AAFE002801D0072800D199
:10BCA000002010BD10B5022000F056FD10BD0000B0
:10BCB00070B50024064D06E06968E000085C0121CB
:10BCC00001F080FF641C28788442F5D3002070BD09
:10BCD000A8200020F8B515460C460646052A01D2D4
:10BCE0000720F8BD02F046F8002803D102F014F84E
:10BCF0000028F6D1104900204E600C70C8608D609D
:10BD000008610E4D0DE0E0006968801900918178AE
:10BD10006A46517000780A4A694601F09FFF002880
:10BD2000DFD12046641EE4B20028ECD1054A002190
:10BD3000024800F04DF8F8BDA8200020ECF2010008
:10BD400081D1010041D00100BFF34F8F0449034866
:10BD5000C860BFF34F8F00BFFDE700000400FA0585
:10BD600000ED00E00EB50021029000916A460191BD
:10BD70000148FFF7E9FF0EBD0140000010B58268E1
:10BD8000C368934203D001F0ABF9002010BD052039
:10BD900010BD002906D0002A02D0531E134203D042
:10BDA000092070470E207047016083800021816068
:10BDB000C1600846704710B58268C3689A1A8388C4
:10BDC0009A4203D801F096F9002010BD042010BD5E
:10BDD0000A4B5B68002B07D0002A07D0002805D04B
:10BDE0000068037C002B03D00820704707207047B1
:10BDF000002303744174426118467047CC20002030
:10BE0000FFB507469007002581B01E46144600285E
:10BE100025D1002C23D002F00DFB3046114EF060EE
:10BE2000304610300570457002998170446075602D
:10BE3000357001240C48757024050460032114201A
:10BE4000FFF702FB09480460094CA7600321112099
:10BE5000FFF7FAFA6068B060002005B0F0BD072077
:10BE6000FBE70000BC20002080E200E000E100E0F1
:10BE700000150140FEB51F4B5B68002B30D0002839
:10BE80002ED0052901D20720FEBD4369002B27D003
:10BE9000437C012B26D000270291044600256946E9
:10BEA00016460D70684600F0D1F801A803F042F97B
:10BEB000002819D0012101700F4944604968816050
:10BEC000029907614661C16068460A490079487075
:10BED0006846007800F0D8F802F002FD2846FEBD62
:10BEE0000820FEBD0F46D7E768460425007800F01D
:10BEF000CBF8F3E7CC2000200015014010B508492D
:10BF0000496800290AD0002808D04169002905D0D5
:10BF100000210174022102F00BFD10BD082010BDAC
:10BF2000CC20002070B50B4D0146AE780A48FFF7D3
:10BF300025FF0446002E0AD00020A870691C0122AB
:10BF4000C81D01F0EBFF002801D0FFF70BFF2046D2
:10BF500070BD0000DC20002020270020F0B5274E17
:10BF600089B01F460D00044672601CD0A88829685D
:10BF700082B22348FFF70DFF002815D1A889A968D0
:10BF800082B21F481030FFF704FF00280CD1202296
:10BF90001C496846FFF7E4F860690690207C002899
:10BFA00004D0012103E0072009B0F0BD002168465C
:10BFB00001750777607C002800D00E20694648751F
:10BFC000E0680290A068039020680190606800908B
:10BFD0000A480D4A083001F061FF0028E4D1B07032
:10BFE0002068401CE0D00548083001F0C5FF034937
:10BFF0000122491CC81D01F091FFD5E7DC2000207B
:10C0000020270020F4F20100F5EE010010B50146F2
:10C010000C48FFF7D0FE040012D10B4802F076F86E
:10C0200000280DD1084907480839FFF7A7FE002866
:10C0300006D1054901220839034802F007F80446F1
:10C04000204610BD30270020E420002030B5EFF35B
:10C05000108172B6094A54680123002C04D0037081
:10C06000002900D162B630BD5360054B1D68054CF8
:10C07000254015601C6000220270F1E7F0200020CE
:10C0800080E100E0FC06FFBC08494A68002A0CD0A9
:10C0900000280AD1EFF3108072B60A68044B1A60C8
:10C0A00000224A60002800D162B67047F0200020CC
:10C0B00000E100E0F8B5074608680C460526411C7B
:10C0C00001253602002906D02946814019488160A1
:10C0D000206802F076F86068411C02D0002102F06E
:10C0E0005DF83968A06989194862607D217D3A68E8
:10C0F00008439119C866386806CC80194261C1604E
:10C10000207B083C012814D1A068411C02D00021EA
:10C1100002F044F8E068411C05D085400548856080
:10C12000E06802F04EF83A68E1689219A068916000
:10C130001061F8BD00050050F0B50C4693B01F210A
:10C140006A461180072600279180002809D0C1780F
:10C1500049070DD502A9FFF78BFC002809D102ADD4
:10C1600001E000251780002C0ED0E078002802D0D6
:10C17000304613B0F0BD01AA0AA92046FFF778FCAB
:10C180000028F6D10AAA02E06846002287806846A5
:10C190008088C3B268460088C1B2284672DFE8E7EB
:10C1A000FFB581B01E460A9F1346040047D0002BFE
:10C1B00045D0504D012028700020E87020221946FB
:10C1C0004D48FEF7CDFF00206F61C0432E612881EE
:10C1D000284607211830FEF7DCFF47483C21203075
:10C1E000FEF7D7FF4448217820300170A178817094
:10C1F000E178C170617841703F4A65692369556390
:10C20000114613632031E368A268CB608A603A4923
:10C21000E369A269CB638A63616A00291AD0014687
:10C220003C310246483241628A60636A1B880B8057
:10C23000616A436A898899800021436A07E00E2079
:10C2400005B0F0BD656AAD686D5C5554491C9D88AC
:10C250008D42F7D8A16A00291CD0274A9432114692
:10C260000C398A608162A36A9B888B80A16A836A89
:10C27000098819800021836A04E0A56AAD686D5CB5
:10C280005554491C9D888D42F7D82C210A5D1A49C6
:10C2900040310A73216A002909D016490A31016226
:10C2A000226A52884A80216A026A0988118061687C
:10C2B000002900D04160104A0E490020B3322031DD
:10C2C000C3001B1A85009B180C68401C635108288A
:10C2D000F6DB094A0020EB32030185009B188C68CD
:10C2E000401C63510828F7DB034802992030FFF710
:10C2F00023FFA5E764200020A024002010B50188BA
:10C30000134C102915D0112919D01B2910D1007AEE
:10C3100000280DD1E0780521401CFEF7F7FE084605
:10C3200000F036F8002803D06169002900D0884762
:10C3300010BD817D0129FBD18088208110BD0021A5
:10C340006171808821898842F8D10120E8E70000E6
:10C350006420002010B574DF0B4C012060710B4984
:10C360000620C87000210948FFF7E6FE002809D121
:10C37000E07800F00DF8002803D06169002900D0B2
:10C380008847002010BD000064200020C024002049
:10C39000F1B53F4C88B0207800280AD00898E070AA
:10C3A00006A800F0E1FE06980125002804D065707B
:10C3B0006AE0082009B0F0BD354800270721183091
:10C3C000FEF7E7FE334E7078002802D0E0780128AF
:10C3D00007D0B07800280CD0E078012801D00228DE
:10C3E00007D12169002903D025710820884700E082
:10C3F00027710898FFF704FCE0702169002909D033
:10C40000032801D0042805D13078002802D06079B3
:10C41000002811D0A77118216846FEF7BAFE6846B9
:10C4200007700772E1781A480B001830FFF768F9B7
:10C43000052E080F191D2000A57107208847EAE77F
:10C44000A5700190684605704782078213E00221BB
:10C45000A170019068460570B189418231890182DD
:10C4600009E0684602F00CF902E0684602F034F98F
:10C47000E078002803D0684673DF00289AD121694C
:10C48000002901D0A0788847002093E7A770F6E73D
:10C4900064200020A024002070B5054601461C221F
:10C4A0000E48FEF75DFE0E4C002626702968002916
:10C4B00006D00822201DFEF753FE201D7ADF02E081
:10C4C0000748001D7BDF002807D1401E6080667092
:10C4D000044A00210448FFF77BFC70BD6C26002055
:10C4E00094200020D1F00100D4F20100F8B5214CD5
:10C4F0000146028800261E48E589102A13D01E4FE7
:10C50000112A1FD0122A2BD0502A1AD1881DC9886F
:10C51000A94216D14189022913D10C3000F0FEF84E
:10C5200000280CD112E08A88044642801048082274
:10C530000C301831FEF714FE6670002D01D100F0AA
:10C540004BFDF8BD0021C943418046703868FFF7B4
:10C55000D5FC0028F5D0A1690029F2D08847F8BDA4
:10C56000034808220C300831FEF7FAFDE7E7000027
:10C57000942000206C260020D4F201007CB50546F2
:10C5800008880C460930904201D90C207CBD6846D1
:10C5900071DF0028FAD121880820685420881B21E7
:10C5A000401C80B220802954208800A9401C80B201
:10C5B0002080401906220131FEF7D2FD208869460D
:10C5C000801D80B220800978002900D001212954E3
:10C5D0002088401C208000207CBD000010B504464F
:10C5E000FFF784FF2146064800F040F8204601F09E
:10C5F00091FE2046FFF782FE204600F039F910BD7B
:10C600001824002030B5184B0D4604000FCB85B020
:10C6100003936B4607C324D0002D22D00020C043D3
:10C62000A0822868A0610020A0752146684663DFCB
:10C63000002814D121786846817401210182A21C4E
:10C6400004A90120A0DF002809D12946204601F0D5
:10C6500026FF002803D12946204602F0CEFB05B074
:10C6600030BD0E20FBE70000D8F2010010B5002815
:10C670001BD0002919D00A88102A17D0112A17D0E8
:10C68000502A12D104468A1DC888238A1231984242
:10C6900002D15389022B0FD0A388984205D1A369F8
:10C6A000002B02D052892046984710BD898801E0AE
:10C6B0000021C943818210BD084600F02FF80028F0
:10C6C00000D00120A07510BD07B584B000280DD0A2
:10C6D000828A114B9A420BD0827D002A08D06A468A
:10C6E000128B142A06D9072007B000BD0E20FBE7E5
:10C6F0000820F9E7002200920192029203928289B7
:10C700006B461A80039106A9029101219970808AD3
:10C710006946A6DFE8E70000FFFF000041780278E5
:10C7200008021043C007C00F704700000149085CB1
:10C7300070470000A4F201000549095C0548006942
:10C74000C840C007C00F00D00120012148407047F9
:10C75000A4F201000005005005490B5C05494A6838
:10C7600001209840034693438B601040C860704797
:10C77000A0F201000005005010B50349085C01213A
:10C7800001F05CFD10BD0000A0F2010010B50349EE
:10C79000085C002101F052FD10BD0000A0F2010074
:10C7A0000549095C05484068C840C007C00F00D073
:10C7B0000120012148407047A0F20100000500500F
:10C7C0007CB50024074E2546305D012200950023EC
:10C7D0001146019501F0A6FC641C042CF4D300F072
:10C7E00003F87CBDA0F2010010B500242046FFF73D
:10C7F000C3FF641C042CF9D310BD10B500242046DF
:10C80000FFF7C4FF641C042CF9D310BD02460020BE
:10C8100010B5C043054B00215C5C944201D1084631
:10C8200010BD491C0429F7D310BD0000A4F201007B
:10C8300070B50E4E00250C46306000290DD0012049
:10C8400000F0AEF8002801D0022005E0002000F042
:10C85000A7F8002800D00B2020707068002802D1B3
:10C86000FFF702FA0546284670BD00005C20002054
:10C8700010B51C4C0188606810290DD011290AD10F
:10C88000401E606007D1FFF7EFF9002803D0216850
:10C89000002900D0884710BD00281ED100210122A8
:10C8A000084600F0A3F8002801D0072811D107227C
:10C8B0000221012000F09AF8002801D0072808D1B1
:10C8C00004220221002000F091F8002805D007285A
:10C8D00003D02168002900D088476068401C606050
:10C8E00010BD00005C20002010B5002000F0BCF955
:10C8F000002801D0062807D1012000F0B5F9002852
:10C9000001D0062800D1002010BD0000F3B581B091
:10C910000D460198FFF77AFF0446042813D21D48FC
:10C920001D4F1E4E002D27D0012D0DD0022D0AD1F6
:10C9300060002018C0194578002D04D0F168002946
:10C9400001D028468847FEBD610061187D5CCF1983
:10C95000797800290BD071680A2251430F4A806808
:10C96000921CFFF787FA002801D10198B0700B489C
:10C97000B97810300155DFE78068FFF7BFFA074844
:10C98000610061181030C919005D8D78A842D3D0BC
:10C99000FEBD0000A8F20100742400204820002001
:10C9A00010B5FFF7C9FE10BD014610B50D480429AA
:10C9B000408806D007290CD00A2901D101F0B6FE23
:10C9C00010BD132176DF09E00028F9D0FFF7CAF97E
:10C9D00010BD05498842FBD1FFF7BCFC0828F3D104
:10C9E00010BD0000E81F0020FFFF000070B500230D
:10C9F000042811D2440004190D4D012A02D1012945
:10CA00000DD0002246008019094E801900290CD053
:10CA1000012906D0022906D00723184670BD0E3022
:10CA2000C2B22A55F9E74270F7E78270F5E70000D5
:10CA30007424002010B5054A0146127A0020D2075E
:10CA400002D0084600F050F810BD00004820002039
:10CA5000F8B506461F4800248660C26041600F4654
:10CA6000B00720D50025012211462846FFF7BEFF5A
:10CA70006D1C0446042D02D2002CF4D013E0002CCF
:10CA800011D17A0804211448FFF724F904000AD1CF
:10CA9000FFF70EF9040006D10F48104A0021001FCD
:10CAA000FFF796F90446F00701D0FFF789FE002C46
:10CAB0000ED109480A4A00210C38FFF789F9040011
:10CAC00006D10548074A01210838FFF781F90446D5
:10CAD0002046F8BD48200020B4F2010079CC0100C6
:10CAE00061D30100A5BC0100F8B55D4C0546607836
:10CAF0000026002803D000206070FFF775FE01209B
:10CB0000584F2B00FEF7FCFD18970D0D2E3D4A5F88
:10CB100064686F686FA97777777777979A9DA0A9F0
:10CB2000A9950020FFF73CFE00280AD00020FFF75F
:10CB300023FE022D02D1E120C0000BE07D20400148
:10CB400008E00020FFF722FE022D01D1C82001E0FD
:10CB5000FF20913025706421FEF7D8FA61684143C7
:10CB600000222BE00020FFF71BFE002805D000204C
:10CB7000FFF702FE19204001ECE70020FFF706FE58
:10CB8000E4E70020FFF70CFE002803D00020FFF7A9
:10CB9000F3FDD3E70020FFF7F9FDD9E70020FFF709
:10CBA000FFFD002803D00020FFF7E6FD02E0002093
:10CBB000FFF7ECFD25706068410000223868FFF740
:10CBC00059F9064635E00020FFF7C6FD257007E05D
:10CBD00000203FE025702CE060700120FFF7BCFDD5
:10CBE00000226168EAE760700120FFF7B5FD606828
:10CBF00081004118E1E77868FFF780F906461120C7
:10CC0000401B01D0002E03D00220FFF7B5FD10E03D
:10CC100001280BD9C82148436421FEF777FA6168DF
:10CC2000002241437868FFF725F906460220FFF706
:10CC3000ADFD3046F8BDFFF7D7FDCBE7FFF7D4FDDC
:10CC4000C6E7FFF7D1FD04E0FFF7CEFD0020FFF7B8
:10CC50009DFD0120FFF79AFDBCE7FFF7CEFDB9E788
:10CC600048200020A8F2010010B5FFF75FFD032166
:10CC700001F0B1FA002010BD10B500780221FFF7D5
:10CC800045FE10BDF0B5002589B0049503950295C9
:10CC90002F462E46494C019589E0484A0832911E9C
:10CCA000881E00F027FE454A0E32911E881E00F0B5
:10CCB0003BFE642D1DDD60696430854219DC042172
:10CCC000615E0498401804900621615E0398401844
:10CCD00003900821615E0298401802900A21615E6B
:10CCE0000198401801900C20205E3F180E20205E15
:10CCF0003618606900906430854257D100990498D5
:10CD0000FEF71AFA6062079000990398FEF714FA8A
:10CD1000A062069000990298FEF70EFAE062059074
:10CD200000990198FEF708FA206338460099FEF74B
:10CD300003FA606330460099FEF7FEF9A06320A075
:10CD4000059B069A0799FEF7CBFC606A01234042D7
:10CD5000C117490F0818C0108446E063A06A9B03FE
:10CD60004042C117490F0818C2102264E06A181A1D
:10CD7000C3175B0F1818C3106364206B4042C117C0
:10CD8000890F08188010A064606B4042C117890F9A
:10CD900008188010E064A06B4042C117890F081882
:10CDA0008010206561460EA0FEF79AFC6D1C60693C
:10CDB0006530854200DA70E709B0F0BDE81F002059
:10CDC0004D45414E20616363656C2078203A2025F3
:10CDD000642C20793A25642C5A3A2564200D0A00E7
:10CDE0006F666673657420616363656C2078203AB2
:10CDF0002025642C20793A25642C5A3A2564200D8C
:10CE00000A0000000022D243830004490428CA50CB
:10CE100002D3081820300277704700009C260020BB
:10CE2000F0B50025ED43002A02D00023042601E0DE
:10CE3000042308260B4C04E09F00E7597F1C04D014
:10CE40005B1CB342F8D32846F0BD26185DB22036ED
:10CE500035709E00A151002AF5D1E11820310877E4
:10CE6000F1E700009C2600200249091820200856FE
:10CE7000704700009C26002070B5084C050009D0C2
:10CE800010342168002907D00868206049682846C6
:10CE90008847F6E70834F4E770BD000088260020D4
:10CEA000F8B52348416800293ED00E6821494C68F6
:10CEB00087688078E11B0D022D0AED1C002814D133
:10CEC00001201D4A000450601B4A403A50601B4933
:10CED000400008601A4908601A49012008602F20A4
:10CEE00000F0E4FD124901208870B54200D23546B9
:10CEF000E81900020F4B000A403318600D4A5168D0
:10CF0000001B091B0902090A0002000AC91C814210
:10CF100009D9506818602F2000F0C8FD012007498A
:10CF2000400480390860F8BD01F084FAF8BD0000C3
:10CF3000BC200020001501404013014080E200E0C9
:10CF400000E100E000100140F8B5064610881446E4
:10CF50008446801D0D46984201D90C20F8BD3288C8
:10CF60000720062AFAD31927FF01184BBA4201D924
:10CF70009A42F3D171880629F0D3B94201D9994276
:10CF8000ECD19A4203D0994201D08A42E6D80521D9
:10CF90006046295420881221401C80B220802954E8
:10CFA0002088401C80B220804119308802F08AF825
:10CFB0002188401880B220804119708802F082F8E0
:10CFC0002188401820800020F8BD0000FFFF0000ED
:10CFD00010B5FEF7C7FE10BDF8B5164800F08EF983
:10CFE000144D00260C3D144C002807D0616900291F
:10CFF0001CD001206A461070684616E02878002888
:10D0000005D06169002911D0684606700DE0687886
:10D0100000280DD0A168094800220068FEF72AFF09
:10D02000002803D0A169002900D088472E70F8BDE0
:10D030006168F0E7A02000206C260020D4F20100F7
:10D04000F8B500260124154D23E06968F000471863
:10D05000387821462A698140114218D08A432A61D2
:10D0600000F050FE3A782146EB68914019400346A3
:10D07000934099420BD17978012901D0012100E038
:10D0800000217B684140002B01D010469847761C58
:10D09000F6B228788642D8D3F8BD0000A820002038
:10D0A00010B50E4900230A784C78A24212D0521CC7
:10D0B000D2B20A70022A00D10B700A78074B920094
:10D0C00018339A580260886810180002000A8860B5
:10D0D000012010BD0360002010BD0000BC20002016
:10D0E000826883881A4003689A5C0A708168491CC8
:10D0F00081607047C26883881A4003689954C16888
:10D10000491CC160704710B50446C0B2FEF77EFFEF
:10D11000204610BD10B5002823D0124B0022001F5E
:10D12000196803E0814203D80A4649680029F9D109
:10D13000002A0AD01368841A9C4204D10068181887
:10D140001060104602E0506000E01860002907D02F
:10D1500002680B1A934203D10B68D2180260496827
:10D16000416010BD14210020002804D00349496EFD
:10D170000160002070470320704700004027002016
:10D18000F8B50746104E0125BD403068FEF7B6FEE3
:10D1900000280DD10D4C2069284207D1384600F0F7
:10D1A000B1FD0028E06804D0284303E0A8432061D3
:10D1B000F8BDA843E0602069002228432061A168EF
:10D1C0003068FEF757FEF8BDECF20100A820002001
:10D1D000F8B51E4C2078002836D0E06800260028DC
:10D1E0000CD00025607800282ED1684652DF052833
:10D1F00006D0002806D0FEF7B5FD0BE00125F1E7CB
:10D20000012607E0009800F0A7FC2169002901D061
:10D2100000988847002D13D16078002814D16088C9
:10D2200069460880A06861DF052804D0002804D082
:10D23000FEF798FD04E0012502E0E168A068884758
:10D24000002ECFD0002DE5D0F8BD0000FC2000203E
:10D250007FB50C460D462035064669782878019141
:10D26000009022462632D11E3046E36901F09DFC33
:10D27000002819D1E87800281DD1207B022801D090
:10D28000032818D12269E169914214D16269E261EF
:10D29000E37B2B70217E8906C90F6970032804D0B7
:10D2A0003146204601F01AFC7FBD009131462046F0
:10D2B00001F000FD7FBD20460C3007C801AB07C35D
:10D2C000E878002100280ED00920C0013218506CE7
:10D2D0005064820701D5012002E0400705D50220F5
:10D2E0006A46107001E0684601702971207E40078F
:10D2F000E0D422686846616890477FBD4188054850
:10D300000288914204D34088814201D801207047AD
:10D3100000207047982000201048018CC9B20129D4
:10D3200017D1818C090714D1018D09060A0F03D189
:10D33000828D1206120F0ED0090F012903D1828DA2
:10D340001206120F07D0032903D1808D0006000FAB
:10D3500001D000207047012070470000C00F00F08E
:10D3600010B50448017AC90702D00078FFF7BCFB6A
:10D3700010BD000048200020F0B5284C214610398F
:10D3800048688B68227886469C46CF78667836E077
:10D39000182353436168521CC918A378D2B2934230
:10D3A00000D100220B78022B02D0032B27D123E0DF
:10D3B00003464D68194603E0A94204D00B46C969EB
:10D3C00000291CD0F8E7002919D08B4208D1C06988
:10D3D000002805D1124F0125BD600025AC4601276C
:10D3E0000D68C969D961002909D00B685B190B6008
:10D3F00005E00174C06900E000210028F9D19642DF
:10D40000C6D10649624610398A604860CF707045BF
:10D4100001D00120F0BD0020F0BD0000CC20002094
:10D4200000100140F8B52C4E0446706800250090AD
:10D4300041E0002C02D02046E46920E02648182371
:10D440001030017842684B43491CC9B2D2180170B0
:10D450008378994200D105701178506801292CD148
:10D46000017C002929D191684160D16881601169EE
:10D47000C16051698161F178002900D0456043683D
:10D48000B268164F991A0902090AB94202D2826893
:10D49000891806E0D11A09028268090A8A4202D96B
:10D4A000511A016000E0056045600121856001744A
:10D4B000C56101F01DFA002CBBD10748103001787E
:10D4C00040788142BAD171680098814201D0012030
:10D4D000F8BD0020F8BD0000BC200020FFFF7F0049
:10D4E000A8B00023834A05211846FEF789FC0028CE
:10D4F00001D0FEF737FC18227F4904A8FDF730FE63
:10D50000FF2101317D480090401801910391029064
:10D5100003237B4A694604A8FEF720FD002801D0BA
:10D52000FEF720FC152000F042FE162000F03FFE22
:10D53000172000F03CFE182000F039FE082000F013
:10D5400036FE0B2000F033FE092000F030FE6D4A5D
:10D550006D490320FFF77CFA002801D0FEF702FC9A
:10D5600069460020FFF764F9002801D0FEF7FAFBB6
:10D570006846007802287DD00020694608715E4820
:10D580005E49203800680590002348225C3905A8D0
:10D5900001F00CF9002801D0FEF7E4FB6A460121F6
:10D5A000002001F0EBF8002801D0FEF7DBFB684615
:10D5B00001F0DAF8002801D0FEF7D4FB534801F05F
:10D5C000C9F8002801D0FEF7CDFB1120694608728A
:10D5D00006224FA102A87CDF002801D0FEF7C2FB83
:10D5E0000024009410216846019401803C21418070
:10D5F000FF2184809131C1807ADF002801D0FEF7BD
:10D60000B1FB454800903B486946A030FEF7FAFF61
:10D61000002801D0FEF7A6FB3C2101A8FDF7B9FDCB
:10D6200002216846017184710521C1713C2110A855
:10D63000FDF7AFFD012510A805823848159020217F
:10D640001FA8FDF7A6FD18A8C57740202390B42099
:10D650002490334B1FAA10A9009401A8FEF7A0FD47
:10D66000002801D0FEF77EFB1C216846FDF791FDE6
:10D67000052000E03CE0C00301900F200004029070
:10D680000094032168460173C48104742548059001
:10D69000254806906846FEF7FFFE002801D0FEF7F9
:10D6A00061FB22A0FEF71CF80320FEF771FE0028A4
:10D6B00001D0FEF757FB01F0E9F900F00EF91FA0C9
:10D6C000FEF70EF827A800F0F9F820A8017F21A0A6
:10D6D000FEF706F8FFF7D6FAFEF7AAF901F098F878
:10D6E000214CA56048DF0028FBD0FEF73BFBF8E7A4
:10D6F000012042E77823002078F201007821002001
:10D7000095EE0100A9C90100CD0C0000DDC50100A6
:10D71000416C616D64610000C5E20100F81F0020EA
:10D72000F5E20100E5E30100D1CF01000D0A55410A
:10D730005254205374617274210D0A004D505536B5
:10D740003035302074657374207374617274200DE9
:10D750000A0000006D707536303530204944203A9B
:10D76000202578200D0A000000A00040F0B50B3005
:10D77000C108C900144F0026144A0FE003688B4209
:10D780000BD38B4205D95C1A4318456830C3083B5C
:10D7900000E04368136002C004E0021D1068002826
:10D7A000ECD13046002803D13868002801D0002091
:10D7B000F0BD064A06481060064A121AD208D20086
:10D7C00044C001203860D7E7182100201421002030
:10D7D000AC270020A82F002070B5144682880E4682
:10D7E00005462088111D4118921C994201D8FE2A35
:10D7F00001D90C2070BD521C32542088FF21401CDE
:10D8000080B2208031542088401C80B22080811951
:10D81000288801F057FC2188401880B22080AA880F
:10D82000002A09D0A968002908D08019FDF798FCC2
:10D830002088A98840182080002070BD072070BD76
:10D8400037B582B0002014460D460090012302AA8D
:10D850006821064800F0FCFA002805D1E3B22A4608
:10D860006821024800F0E2FA05B030BD5CF2010028
:10D87000F7B50746561C82B015463046FFF776FFCF
:10D8800004460770002005E003992218095C401C3B
:10D890005170C0B2A842F7D300200090F3B22246E4
:10D8A0006821054800F0D4FA05462046FFF732FC0F
:10D8B000284605B0F0BD00005CF2010038B5044612
:10D8C000012269467520FFF7BBFF002801D0FEF753
:10D8D00049FA68460078207038BD08B500206946CE
:10D8E000087001226B20FFF7C3FF002801D0FEF76C
:10D8F00039FA08BD7CB514460D460646062269462F
:10D900003B20FFF79DFF002801D0FEF72BFA684669
:10D91000008840BA30806846408840BA288068460F
:10D92000808840BA20807CBD7CB514460D460646F2
:10D93000062269464320FFF783FF002801D0FEF747
:10D9400011FA6846008840BA30806846408840BA7C
:10D9500028806846808840BA20807CBDF8B50F4694
:10D96000017814460546012902D16878002806D0BE
:10D970002088821C9A422DD8012902D006E0072077
:10D98000F8BD69784118891C994223D8181A801E5D
:10D9900086B2684606802188B81C081869467DDF73
:10D9A0000028EDD12878022805D169460988B142BE
:10D9B00001D809210AE00821012805D16878B04280
:10D9C00002D86A46108001E06846068068460088F2
:10D9D000FE2801D90C20F8BD2288401CB8542088AC
:10D9E000401C80B22080395420886946401C208029
:10D9F0000988401820800020F8BD000010B501788B
:10DA00008A074178920F4907C90E4068114382077F
:10DA1000540E0C438103890F03D0032109040840ED
:10DA20000443002000F00AF803494868FF2212026C
:10DA300010402043486010BD0075004010B50649F5
:10DA400002024B68FF242402A3431A434A600028C1
:10DA500000D00120086010BD00750040C2084307D7
:10DA60005B0F0120895C98400840704701218907BD
:10DA700040180068002800D00120704700280FD00F
:10DA80000849094A096800BF00BF00BF00BF00BFC6
:10DA900000BF00BF00BF914200D000BF401EF2D1C6
:10DAA00070470000102100200024F40000280FD04F
:10DAB0000849094A096800BF00BF00BF00BF00BF96
:10DAC00000BF00BF00BF914200D000BF401EF2D196
:10DAD00070470000102100200024F40070B50E4CA7
:10DAE00000252078002801D0852513E00021A160C1
:10DAF00061602161E160094800680126304002D17F
:10DB0000032100F02FF800F07DFE002801D1044829
:10DB100086612670284670BD8826002000E100E05E
:10DB20000005004038B50020694608706846FEF7D9
:10DB30008DFA084C2078002801D1FFF7CFFFE0686C
:10DB4000401CE0600120A07068460078FEF79CFA57
:10DB500038BD00008826002010B5002801D1FFF74D
:10DB60008BF910BD8207D30EFF229A408907090E58
:10DB700010B5994000280BDA03071B0F083B9C08DF
:10DB80000C4BA400E318DC6994430C43DC6107E010
:10DB90008408094BA400E418236893430B432360D3
:10DBA000C106C90E01208840044908600449086084
:10DBB00010BD000000ED00E000E400E080E200E0C5
:10DBC00000E100E0F3B581B0054600F01BFC1F4FFB
:10DBD0000028284617D0FFF747F9C0192030007FEA
:10DBE0008009032802D001280BD005E018480069FD
:10DBF000E840C007C00F04D00321284600F0FCFA1B
:10DC0000FEBD0221F9E700F009FC0028F8D0284603
:10DC1000FFF72AF904468000C11D0E4AF931801829
:10DC2000026989B2012632430261084600F026FBF0
:10DC300002980028E4D02846FFF716F980003858EB
:10DC40000028DDD00448A6404660FEBD9C2600208A
:10DC5000000500500065004000630040FEB504462A
:10DC600025480E460019202141560027C8171346A3
:10DC7000401C01D008273CE0F27819462046FFF707
:10DC8000CFF80546401C33D0B07800280BD00520D3
:10DC90000007A100091807200002091808680222DD
:10DCA0009043086007E000217378204600910A46FF
:10DCB000019100F04BFAF078002810D00F48AA002C
:10DCC0001018317802690E4B1A400261E206D20C3C
:10DCD0008907890B0A4301690A43026109E0064882
:10DCE000327840192030017F92011143017700E022
:10DCF00004273846FEBD00009C2600200065004039
:10DD0000FFE0FCFF03490969C140C807C00F00D00C
:10DD1000012070470005005070B5144D2879002887
:10DD200001D0082070BD114900204039421E0B1857
:10DD30002033401CC0B21A702028F8D3002420469B
:10DD4000FFF760F8641CE4B2082CF8D30321062026
:10DD5000FFF708FFFF207D3000F090FA0120044912
:10DD6000C007486001202871002070BDDC2600201B
:10DD70000063004002480079002800D0012070476D
:10DD8000DC260020017928225143054A00688918C1
:10DD900005221302C01802600220203188707047EB
:10DDA000F0230020F8B507460C46007928214843A7
:10DDB0001B4945182E462036B078002801D008208F
:10DDC000F8BD0CC50020286070713071A07BF07127
:10DDD000607B083D002802D0204600F00DFE21683F
:10DDE00010488A0010495218106062689200511859
:10DDF0000860052338681B0206CCC0188160C26029
:10DE0000216841622868083C002805D03868217BD9
:10DE1000000B40B2FFF7A6FE0120B0700020F8BD55
:10DE2000F02300200C060000000700503EB5074D0F
:10DE30006C69ED69009402956C466170A370019263
:10DE40000022694600F016F83EBD000058F20100BD
:10DE50003EB50025069C009502956D466970AB7035
:10DE60000192002C01D0202200E00022294600F07F
:10DE700001F83EBD70B50D46017928235943064B84
:10DE8000CC18910701D0062070BD134601682A46C0
:10DE9000204600F05DFF70BDF0230020F8B5064677
:10DEA0000F4600791C2148431A4915464418E07E64
:10DEB000002801D00820F8BD39463046FEF7FAF8B0
:10DEC00065603869206028460025002813D0FF22AD
:10DED0003068397F1D328550FF22306845328550C9
:10DEE000032330681B020C4AC01842603068000BE4
:10DEF00040B2FFF737FE0522306804211202801875
:10DF00000160E5752576A5750121E1762846A5769F
:10DF1000F8BD0000E426002080000200F8B5037977
:10DF20001C246343134C81251C19032766680023B6
:10DF3000AD003F02002E02D00668F619B560E67DFE
:10DF4000002E0ED0237E002B07D06168002902D05E
:10DF50000068C01945601120F8BD216101232276B7
:10DF600004E0E2750025E1606576257600F01AF898
:10DF7000F8BD0000E426002070B5044600791C219D
:10DF8000074D48434019807E002808D1204600F004
:10DF9000DFFA20791C22012150434019817670BD9F
:10DFA000E4260020F8B5044600791C2148432649A0
:10DFB0004518A87E184302D1204600F0C9FA6868C7
:10DFC000002808D0812103222068890012028018CD
:10DFD00041600020F8BDFF204530216800220A5032
:10DFE000FF212531206800F060F90646FF21093144
:10DFF000206800F05AF90090FF214531206800F0B8
:10E0000054F90746009838433043E9D03046384346
:10E0100007D12946206800F02FFAE87D697E884202
:10E02000DED80020E875002E01D00320F8BD002FB7
:10E0300001D00F20F8BDA97E01200029216801D060
:10E040000860C6E74860C4E7E426002070B50546CE
:10E050000C4600791C21484308494318284600F023
:10E0600055F8002801D0112070BD9A7500209C60E1
:10E070009882284600F004F870BD0000E4260020D5
:10E08000F8B5044600791C2148431F49002645186D
:10E09000FF2720681D37C65120680121816029466D
:10E0A000206800F09BFE6968002913D027E0FF2755
:10E0B0000137FF211D31206800F0F7F8002802D158
:10E0C000A88AB842F5D1A88AB84203D02946206868
:10E0D00000F084FEA88AA97D8842E8D3A98AC81FD7
:10E0E000F9380ED0FF271D373946206800F0DDF8DB
:10E0F0000028F9D020680121C1600020A8753046B1
:10E10000F8BD0F26F9E70000E426002000791C2165
:10E11000484303494018807D002800D00120704703
:10E12000E426002070B552000A439900049D0A437A
:10E130002902059E0A43310405240A43240780006E
:10E140000721001909024018026070BD70B5520025
:10E150000A439900049D0A432902059E0A4331049B
:10E1600005240A43240780000721001909024018EA
:10E17000026070BD70B552000A439900049D0A43C5
:10E180002902059E0A43310405240A43240780001E
:10E190000721001909024018026070BD1CB5002259
:10E1A0000B46009211460192FFF7E4FF1CBD0522C9
:10E1B00012078000801807220321120280180160D4
:10E1C00070471CB5002100910B46012201911146B8
:10E1D000FFF7D0FF1CBD0522120780008218072020
:10E1E00000021018026803231B049A4302600268AD
:10E1F00009040A4302607047052212078000821852
:10E20000072000021018026803231B049A430260CF
:10E21000026809040A43026070470000012181403E
:10E220000148C16070470000000500500121814095
:10E2300001488160704700000005005001228240C3
:10E240000348002901D082607047C2607047000017
:10E250000005005038B5084B05241B6800932402C4
:10E260006B46411805E085005D592D192D69401C4C
:10E2700020C28142F7D838BDE8F2010002494018B7
:10E280000021016070470000006000400349401811
:10E290000068012800D000207047000000600040A6
:10E2A0004058002800D0012070474058002800D076
:10E2B000012070470322120280184068084000D0F5
:10E2C0000120704770B516460D46002405E0285D14
:10E2D000FDF79CFE0028FAD1641CB442F7D30D2050
:10E2E000FDF794FE0028FAD10A20FDF78FFE0028E2
:10E2F000FAD170BD10B5002809D0032806D102203C
:10E30000FEF798FB002801D0FDF72CFD10BD00F0B2
:10E310000DFA10BD70B50446314D00886E8888B086
:10E320003A2838D00DDC022839D0102813D0112813
:10E330001AD0132822D100231A46852130467FDFC8
:10E3400026E051282FD052281DD0552816D1A0885C
:10E35000132176DF1CE00720FEF76CFB002801D0BC
:10E36000FDF700FDA08808E00020FEF763FB002811
:10E3700001D0FDF7F7FC0020C043688008B070BDF5
:10E38000FDF7F0FCFAE700231A4619463046A9DFEC
:10E390000028F5D1F2E7A088132176DFF8E7A088FE
:10E3A000002167DFF4E71022A11D04A8FCF7D8FEC6
:10E3B0006846017C0029E1D0007E042803D00628AD
:10E3C00001D00528DAD1022908D001206946087059
:10E3D000FF2083308880A088A8DFD9E70220F5E7F6
:10E3E000E81F002010B50078002807D104483B2121
:10E3F000408876DF002801D0FDF7B4FC10BD000096
:10E40000E81F00200449081820214156042901DB97
:10E4100001207047002070479C26002004490818FE
:10E4200020214156042901D2012070470020704765
:10E430009C26002070B501240B49600408600B493C
:10E4400040108860094940398860094D6C602F2070
:10E45000FFF72CFBAC60074D00242F20AC60FFF7CA
:10E4600025FBAC7070BD000080E100E0401301406E
:10E4700000100140BC20002030B5FF220523CD7DD7
:10E48000002409321B02C318002D8450986905D05E
:10E490004B7ECA68D054487E401C487630BD70B56B
:10E4A00000240546601C90B00007000F08A910303A
:10E4B00008940870601C0007000F103048708878BE
:10E4C000F9263040801C88701C2101A8FCF761FEF1
:10E4D000694608791021084369460871029408A822
:10E4E0000494059407940690287808A9887103205D
:10E4F0006946888411200094087048708878F72154
:10E500003040801C0840EF21084001263043694616
:10E51000887014210AA8FCF73CFE09A80A906846F6
:10E520000B9069460E8614204C8688862B46688898
:10E530000C330AAA01A9A2DF10B070BD1FB50124D7
:10E540006B461C701972019206C8684690471FBD41
:10E55000FF23253302680021D150FF2302680933CD
:10E56000D1500068012101607047000010B50446D9
:10E57000FDF7E2F800280CD0A007C00E002C0ADA44
:10E580002107090F08398908144A89008918C969BF
:10E5900006E0134810BDA108124A890089180968CD
:10E5A000C1400806800F042811D200280FD002288D
:10E5B0000DD00D494B68E206D20E01209040002B91
:10E5C00008D0620992008B5803438B5004E0044842
:10E5D000401C10BD05490860002010BD00ED00E0A2
:10E5E0000120000000E400E0F020002000E100E055
:10E5F000FFB50746806A81B0144600283DD000254B
:10E6000038462030009033E00C20B96A68430E1879
:10E61000B088801CFE2802D90C2005B0F0BD2288ED
:10E620000299401C885420881622401C80B2208009
:10E6300002990A542088401C80B220800299411817
:10E64000308800F03FFD2188401880B22080B288D9
:10E65000002A0AD0B16800290FD0029BC018FCF72D
:10E660007FFD2088B188401820806D1C0098EDB295
:10E67000007BA842C8D80020CFE70720CDE70000E4
:10E6800070B504461248134D018A2182818A618245
:10E690000078002818D06879002815D100F0D0FD46
:10E6A000002811D028462030E0600220084920725E
:10E6B00004202031C870064800212030FDF73CFDC1
:10E6C000002804D1052000E00320A870002070BDC0
:10E6D000A02400206420002070B5044611480426C0
:10E6E000018B2182818B618200780F4D002816D02A
:10E6F0006879002813D100F0A3FD00280FD0284628
:10E700002030E06002202072064800212030C670D0
:10E71000FDF712FD002804D10620A87000E0AE70BD
:10E72000002070BDA02400206420002010B500202F
:10E73000FEF780F9002801D0FDF714FBFEF7D4F8AE
:10E74000002801D0FDF70EFB3CDF002801D0FDF7CB
:10E7500009FB10BD002803D00249C86000207047A3
:10E760000E207047FC2000201CB503490191009148
:10E77000694660DF1CBD0000E81F002070B50E4632
:10E780000546144614211046FCF703FD0120002124
:10E7900020802161217326726572002D00D0A07245
:10E7A000002070BD10B5FDF7CFFA10BDF8B50029F7
:10E7B00003D08C070025002C01D00720F8BD0E4E99
:10E7C0000E4FB1607280736039680124214003D01C
:10E7D0000A49254680310C60094910DF002803D022
:10E7E000002DEBD03C60F8BD3470FFF79BF916208C
:10E7F000FFF7BCFEF8BD0000FC20002000E100E0B7
:10E80000A5E701000148007870470000FC200020C7
:10E8100010B50D48002141600C4B0122DA6009243B
:10E8200004618160084840300160094941608160AD
:10E830004900C1600F2007490004486008150649D7
:10E8400008601A6010BD000000A5004000A0004054
:10E85000127A000000A3004000E100E0FEB51F4C6A
:10E860000025A768606802906846FEF719FC0190D1
:10E87000FEF782FD06460198002822D0002300986A
:10E88000616817E00E680A46864202D9301A0860AD
:10E8900012E0801BF31800261660D668D169B446D2
:10E8A000002E07D0FE183602360A5660664696607D
:10E8B000D56115460029E5D128466160FEF7B2FD15
:10E8C00006E02846FEF7AEFD002801D1002E02D05A
:10E8D0000298FEF7E5FA0020E070FEBDBC200020A3
:10E8E00001200249000508607047000000E200E0D6
:10E8F00010B50E4B5968002906D002680C68A24278
:10E9000004D8A21A0A60C161586010BD0B4604E029
:10E910000B46C969121B002904D00C689442F7D336
:10E92000A41A0C600260C161D86110BDBC20002037
:10E930007CB50D460646002469460C706846FDF716
:10E9400085FB01A800F0F6FB00280DD0057046609D
:10E95000684608490079487068460078FDF794FBDE
:10E96000FFF7BEFF20467CBD684604240078FDF713
:10E970008BFBF7E7CC200020F8B51D4D6C68002C10
:10E9800034D01C4800274068A968401A0602360A9D
:10E990002068B04218D8361AC7192246107CE4699C
:10E9A00000280FD000201074EB68002B07D091696D
:10E9B00050699847002805D0FDF7D4F902E0516965
:10E9C00090698847002CE3D129786878814206D184
:10E9D000401CC0B26870022801D100206870044950
:10E9E0000006800D18310F50FFF77AFFF8BD0000C8
:10E9F000BC2000200015014070B504462168214D5F
:10EA000089001F4849190860616889004919086030
:10EA10002068FFF70BFC6068FFF708FC18482168C6
:10EA2000401C89004919086061688900491908601B
:10EA30000420FFF723F8144E002521793069C840DF
:10EA4000C007C00F02D0002D18D00EE02068FFF7DD
:10EA5000E5FB0420FFF712F82068FFF7E7FB04202E
:10EA6000FFF70CF86D1C092DE7DB6068FFF7D6FB9C
:10EA70000420FFF703F86068FFF7D8FB70BD0000C3
:10EA80000C06000000070050000500501FB50A4B9F
:10EA90006C460FCB0FC4084800231A466946343829
:10EAA000FFF780F9002801D0FDF75CF902483438FF
:10EAB000FFF768F91FBD000090F201000146032036
:10EAC000CA0701D0412040028A0700D50248490701
:10EAD00001D50148401C704701820000FFB50C467B
:10EAE00085B000210491FF21053100261F466650A4
:10EAF000FF2125316650FF211D316650FF2109316C
:10EB0000665005462035E11DFF31AE71FA31EE70D9
:10EB1000012F0FD001220A600121216221600168CA
:10EB2000002909D014498160806803210902611815
:10EB300048601DE00222EEE70146263123300391B2
:10EB40000290009701962046079B039A029900F0D5
:10EB50002CF80028F5D1E878002809D00920C00158
:10EB60002118486C4864002802D0FFF7A7FF0490E2
:10EB7000049809B0F0BD00008602000030B51C7892
:10EB8000039D944208D205221202095D8018C161DA
:10EB90001878401C187006E00121002D02D0C161D8
:10EBA000002030BD4161012030BDFFB50F4609781E
:10EBB00083B00446002904D1059802780C9882425B
:10EBC00001D1012000E000200190FF202530002528
:10EBD000002907D02550FF201D302550FF20093087
:10EBE000255055E0FF2125312046FFF759FB01262E
:10EBF00000282CD1FF211D312046FFF751FB0028B2
:10EC000014D0FF201D302550FF2125312046FFF76D
:10EC100047FB00281BD10D9800902046059B0C9ABD
:10EC20000699FFF7ABFF00283FD031E0FF21093103
:10EC30002046FFF735FB00282AD0FF200930255059
:10EC4000FF2125312046FFF72BFB002805D0FF20B0
:10EC50002530255066613E701AE005990C980F78B2
:10EC6000069ABC46874213D205231B02E3189B6910
:10EC70006746D3550A78521CD2B20A70411E8A42A6
:10EC800003D102200102085101E0824200D0266235
:10EC9000019800280BD0FF26053631462046FFF7A5
:10ECA000FFFA002803D0A551002007B0F0BD0120D5
:10ECB000FBE70000FFB5054687B00C460020FF21AA
:10ECC000109F053105906050FF2125316050FF21D4
:10ECD0001D316050FF2109316050012149022E464B
:10ECE00008512036B071F07001202062A060B31D81
:10ECF0000097029320460A9A0999FFF73FFF286878
:10ED0000002807D01148A860A868032109026118EB
:10ED1000486018E023350A9800900197294620465C
:10ED2000099B029AFFF741FF0028F4D1F0780028F0
:10ED300009D00920C0012118486C4864002802D07D
:10ED4000FFF7BCFE059005980BB0F0BD86020000F1
:10ED5000F8B5044600250320ED430002081885603D
:10ED6000254620352E79002E03D0A1684160112060
:10ED7000F8BD5807C017401C2871180701D5062098
:10ED8000F8BDA361C1CA0C34C1C40C3A9078287094
:10ED900050680B266060F60150788E19B0601078CC
:10EDA0000026183C01280ED0002801D1980601D574
:10EDB000012000E00020687000909378526820469F
:10EDC000FFF778FF05E06E70937852682046FFF7F2
:10EDD00085FE21680029D3D12E71F8BDFF221D3296
:10EDE000002383508B8A8A68D25C8B8A5B1C8B825F
:10EDF000052109024018C261704770B58EB0054602
:10EE00001C216846FCF7C5F9694608780C210843BF
:10EE100069460870002401940394049405940694B0
:10EE2000287808A98870022069460884601C0007B9
:10EE3000000F10300794087711204877887FF92158
:10EE40000840F721801C0840EF210840012630438C
:10EE500069468877142109A8FCF79BF908A809904E
:10EE600007A80A9069468E851420CC850886688894
:10EE70002B1D09AAA2DF0EB070BD1FB500226B4684
:10EE80001A70197281680191827506C868469047A8
:10EE90001FBD000070B50178002907D0012901D0FD
:10EEA000022902D14068FCF75DFF70BD0F4C0E4D8A
:10EEB00020782818FDF736F82078401CC2B2A81830
:10EEC00022702038C07F0A2801D0142AEDD30649C9
:10EED0000748FDF7F9FB082803D0002801D0FCF70C
:10EEE00041FF0020207070BD64210020E81F002039
:10EEF000182400207CB50178264D002934D0012942
:10EF00000CD002292DD16A461170C068691C01908D
:10EF10000122C81DFFF702F8684630E0406801781A
:10EF20001D48FCF748FF01261B4C002803D069460A
:10EF30000E70019006E0A068E168814205D00020D3
:10EF400069460870084669688847A068E168081A39
:10EF5000A188884206D80F490122491CC81DFEF726
:10EF6000DDFF7CBDAE707CBD0B480A491030FCF75C
:10EF700005FF002806D003206946087068466968C6
:10EF800088477CBD0349012208460830FFF75EF838
:10EF90007CBD0000DC20002020270020F0B50C46BE
:10EFA000012185B005464902FFF784F903210902D2
:10EFB0006F180026002826D0FF2125312846FFF7AC
:10EFC00074F900281FD0FF2025302E5081208000AA
:10EFD000B860A07E002801D1012068600221684647
:10EFE00001700920C0012918086808600390E17DBC
:10EFF00068460172E0680190E675267606CC6846A0
:10F00000083C90472DE004212846FFF753F90028DB
:10F0100027D0FF2109312846FFF747F9002820D0E3
:10F0200021462846FFF728FAE07D617E884218D104
:10F03000207E002807D0617EE268E0752069E060EC
:10F04000267666760AE0A07E002801D1012068605D
:10F0500081208000B860E675617EE2682046FFF797
:10F060006DFAFF271D3739462846FFF71EF900289D
:10F070000FD0A08AA17D884204D221462846FFF7FE
:10F08000ADFE06E0EE51A17D002902D02046FFF73B
:10F09000F4FEFF27453739462846FFF706F90028D2
:10F0A0000ED0EE51A07E002801D001202860E07D26
:10F0B000002805D0E675617EE2682046FFF73EFA3B
:10F0C00005B0F0BD0870000A4870022070470000CB
:10F0D00038B51549154A488890420FD04A78144CE3
:10F0E000521CD2B24A70237B934208D3091D75DFAC
:10F0F000002803D0A169002900D0884738BD002529
:10F100004D70217C002907D03B2176DF002803D0F9
:10F11000A169002900D0884761690029EED06846BE
:10F120000570884738BD000094200020FFFF0000D4
:10F130006C26002010B509494B788C785A1CD2B245
:10F14000944200D100220C78944201D1002010BDDD
:10F150000270486818214B43C01810BDCC20002015
:10F16000FFB583B016460C9D0D9C1F4602220095EC
:10F170000194039800F00CF8002807D13B461022B8
:10F18000314600950194039800F002F807B0F0BDF5
:10F19000FFB583B0074600200C9C864626880546AE
:10F1A0003AE07868A9004218118868468180518841
:10F1B000C1800022694601A865DF002839D1684670
:10F1C00001780598814226D17046002801D000229E
:10F1D00000E002222088891842180D998A4227D817
:10F1E000714600290AD1401C80B22080069A0499F9
:10F1F00011542088401C20800120864621880698D2
:10F200000A18694601A865DF002812D169462088DE
:10F210000978401820806D1C3888A842C1DC7046EF
:10F2200000280AD02088801B401E80B2FF2802D907
:10F230000C2007B0F0BD069988550020F9E70000C2
:10F2400004480179002902D1007B002800D0012068
:10F2500070470000842000200100000700300040BB
:10F260000000000002020000000000000100000099
:10F2700000000000000000000B000000090000007A
:10F28000080000000A0000000000000000E0D701B4
:10F29000070000001E0000000000680601000000DA
:10F2A00015161718111213143424002054240020AA
:10F2B00080240020110003000DC90100120003008A
:10F2C0000DC90100130003000DC901001400030063
:10F2D0000DC901004C2600209ECADC240EE5A9E0E1
:10F2E00093F3A3B50000406E0000005000270020FB
:10F2F00003000000FFFFFFFFFFFFFFFFFFFFFFFF17
:10F30000FFFFFFFF000000000000000000E0D70149
:10F310000300000034F30100E81F00203401000066
:10F320006EB2010058F301001C2100208C16000071
:10F330002AB7010031D3FFFF3701000200E8034282
:10F3400008028001550C26002005562C26002004BA
:08F350002A200040A324F40070
:040000050001B0C185
:00000001FF
